{
  "contractName": "Contest",
  "abi": [
    {
      "inputs": [],
      "payable": false,
      "stateMutability": "nonpayable",
      "type": "constructor"
    },
    {
      "constant": true,
      "inputs": [
        {
          "internalType": "uint256",
          "name": "",
          "type": "uint256"
        }
      ],
      "name": "contestants",
      "outputs": [
        {
          "internalType": "uint256",
          "name": "id",
          "type": "uint256"
        },
        {
          "internalType": "string",
          "name": "name",
          "type": "string"
        },
        {
          "internalType": "uint256",
          "name": "voteCount",
          "type": "uint256"
        }
      ],
      "payable": false,
      "stateMutability": "view",
      "type": "function"
    },
    {
      "constant": true,
      "inputs": [],
      "name": "contestantsCount",
      "outputs": [
        {
          "internalType": "uint256",
          "name": "",
          "type": "uint256"
        }
      ],
      "payable": false,
      "stateMutability": "view",
      "type": "function"
    },
    {
      "constant": true,
      "inputs": [
        {
          "internalType": "address",
          "name": "",
          "type": "address"
        }
      ],
      "name": "voters",
      "outputs": [
        {
          "internalType": "bool",
          "name": "",
          "type": "bool"
        }
      ],
      "payable": false,
      "stateMutability": "view",
      "type": "function"
    },
    {
      "constant": false,
      "inputs": [
        {
          "internalType": "uint256",
          "name": "_contestantId",
          "type": "uint256"
        }
      ],
      "name": "vote",
      "outputs": [],
      "payable": false,
      "stateMutability": "nonpayable",
      "type": "function"
    }
  ],
  "bytecode": "0x608060405234801561001057600080fd5b506100556040518060400160405280600381526020017f546f6d000000000000000000000000000000000000000000000000000000000081525061009e60201b60201c565b6100996040518060400160405280600581526020017f4a6572727900000000000000000000000000000000000000000000000000000081525061009e60201b60201c565b6101be565b6002600081548092919060010191905055506040518060600160405280600254815260200182815260200160008152506000806002548152602001908152602001600020600082015181600001556020820151816001019080519060200190610108929190610119565b506040820151816002015590505050565b828054600181600116156101000203166002900490600052602060002090601f016020900481019282601f1061015a57805160ff1916838001178555610188565b82800160010185558215610188579182015b8281111561018757825182559160200191906001019061016c565b5b5090506101959190610199565b5090565b6101bb91905b808211156101b757600081600090555060010161019f565b5090565b90565b6103bc806101cd6000396000f3fe608060405234801561001057600080fd5b506004361061004c5760003560e01c80630121b93f14610051578063a3ec138d1461007f578063dfd50f52146100db578063ec63d1c814610190575b600080fd5b61007d6004803603602081101561006757600080fd5b81019080803590602001909291905050506101ae565b005b6100c16004803603602081101561009557600080fd5b81019080803573ffffffffffffffffffffffffffffffffffffffff16906020019092919050505061029f565b604051808215151515815260200191505060405180910390f35b610107600480360360208110156100f157600080fd5b81019080803590602001909291905050506102bf565b6040518084815260200180602001838152602001828103825284818151815260200191508051906020019080838360005b83811015610153578082015181840152602081019050610138565b50505050905090810190601f1680156101805780820380516001836020036101000a031916815260200191505b5094505050505060405180910390f35b610198610381565b6040518082815260200191505060405180910390f35b600160003373ffffffffffffffffffffffffffffffffffffffff1673ffffffffffffffffffffffffffffffffffffffff16815260200190815260200160002060009054906101000a900460ff161561020557600080fd5b60008111801561021757506002548111155b61022057600080fd5b6000808281526020019081526020016000206002016000815480929190600101919050555060018060003373ffffffffffffffffffffffffffffffffffffffff1673ffffffffffffffffffffffffffffffffffffffff16815260200190815260200160002060006101000a81548160ff02191690831515021790555050565b60016020528060005260406000206000915054906101000a900460ff1681565b6000602052806000526040600020600091509050806000015490806001018054600181600116156101000203166002900480601f0160208091040260200160405190810160405280929190818152602001828054600181600116156101000203166002900480156103715780601f1061034657610100808354040283529160200191610371565b820191906000526020600020905b81548152906001019060200180831161035457829003601f168201915b5050505050908060020154905083565b6002548156fea265627a7a723158202b6a98616fff37ffac275554007d9117d1cd7b61173afb337e7cdf6e6b1c1f4c64736f6c63430005100032",
  "source": "// SPDX-License-Identifier: MIT\r\npragma solidity ^0.5.16;\r\n\r\ncontract Contest {\r\n\r\nstruct  Contestant  {\r\n    uint id;\r\n    string name;\r\n    uint voteCount;\r\n}\r\nmapping(uint => Contestant) public contestants;\r\n\r\nmapping (address => bool) public voters;\r\n\r\nuint public contestantsCount;\r\nconstructor() public{\r\n     addContestant(\"Tom\");\r\n    addContestant(\"Jerry\");\r\n\r\n}\r\n\r\n\r\n\r\nfunction addContestant(string memory _name) private {\r\ncontestantsCount ++;\r\n\r\n\r\n\r\ncontestants[contestantsCount] = Contestant(contestantsCount,_name,0);\r\n\r\n\r\n}\r\nfunction vote(uint _contestantId) public {\r\n  \r\n   require(!voters[msg.sender]);\r\n   require(_contestantId > 0 && _contestantId <= contestantsCount);\r\n   \r\n    contestants[_contestantId].voteCount ++;\r\n\r\n    voters[msg.sender] = true;\r\n\r\n}\r\n\r\n\r\n}\r\n\r\n",
  "sourcePath": "C:\\vivek\\contracts\\Contest.sol",
  "compiler": {
    "name": "solc",
    "version": "0.5.16+commit.9c3226ce.Emscripten.clang"
  },
  "schemaVersion": "3.4.4",
  "updatedAt": "2022-02-09T18:47:51.672Z",
  "networkType": "ethereum",
  "devdoc": {
    "methods": {}
  },
  "userdoc": {
    "methods": {}
  }
}